:020000040000FA
:10000000A00500206D0200007102000073020000D4
:100010007502000077020000790200000000000075
:100020000000000000000000000000007B02000053
:100030007D020000000000007F0200009508000023
:10004000830200008302000083020000830200009C
:10005000830200008302000083020000830200008C
:10006000830200008302000083020000830200007C
:10007000830200008302000083020000830200006C
:10008000830200008302000083020000830200005C
:10009000830200008302000083020000830200004C
:1000A000830200008302000083020000830200003C
:1000B000830200008302000083020000830200002C
:1000C000830200008302000083020000830200001C
:1000D000830200008302000083020000830200000C
:1000E00083020000830200008302000083020000FC
:1000F00083020000830200008302000083020000EC
:1001000083020000830200008302000083020000DB
:1001100083020000830200008302000083020000CB
:1001200083020000830200008302000083020000BB
:1001300083020000830200008302000083020000AB
:1001400000000000000000000000000000000000AF
:10015000830200008302000083020000830200008B
:10016000000000000000000000000000000000008F
:10017000000000000000000000000000000000007F
:10018000000000000000000000000000000000006F
:10019000000000000000000000000000000000005F
:1001A000000000000000000000000000000000004F
:1001B000830200008302000083020000830200002B
:1001C000830200008302000083020000830200001B
:1001D000830200008302000083020000830200000B
:1001E00083020000830200008302000083020000FB
:1001F00083020000830200008302000083020000EB
:10020000830200008302000083020000000000005F
:1002100083020000830200008302000083020000CA
:1002200083020000830200008302000083020000BA
:1002300083020000830200008302000083020000AA
:10024000830200008302000083020000830200009A
:10025000830200008302000083020000830200008A
:1002600083020000830200008302000000F00AB84D
:10027000FEE7FEE7FEE7FEE7FEE7FEE7FEE7FEE756
:10028000FEE7FEE700F002F800F043F80AA090E86D
:10029000000C82448344AAF10107DA4501D100F041
:1002A00038F8AFF2090EBAE80F0013F0010F18BFCB
:1002B000FB1A43F001031847AC0C0000CC0C000003
:1002C000103A24BF78C878C1FAD8520724BF30C882
:1002D00030C144BF04680C60704700000023002454
:1002E00000250026103A28BF78C1FBD8520728BF46
:1002F00030C148BF0B6070471FB500F049F80400DB
:100300000020002100F0BEFC401C60601FBD10B545
:1003100010BD00F045F81146FFF7EEFF00F03EFC7F
:1003200000F063F803B4FFF7F2FF03BC00F0A6F897
:1003300072B6704762B67047EFF3108072B67047BE
:1003400080F31088704730BF704702480249014A65
:10035000024B7047A0010020A0050020A001002052
:1003600010B5044600F00CF80068005DC00602D528
:1003700004F1200010BD204610BD70477047704743
:1003800010B500F005F8001D10BD00BFF908000011
:10039000004870475800002000487047380000208F
:1003A0007546FFF7F9FFAE4605006946534620F053
:1003B0000700854618B020B5FFF7C7FFBDE820400D
:1003C0004FF000064FF000074FF000084FF0000B11
:1003D000AC46ACE8C009ACE8C009ACE8C009ACE880
:1003E000C00921F007018D46704710B50446AFF3F0
:1003F00000802046BDE81040FFF794BF00000000D9
:1004000030B44FF0013C50F8042B51F8043BCCFAC7
:1004100052F4D51A20D1FCB950F8042B51F8043B02
:10042000CCFA52F4D51A17D1B4B950F8042B51F8BC
:10043000043BCCFA52F4D51A0ED16CB950F8042B07
:1004400051F8043BCCFA52F4D51A05D1002CDAD07D
:1004500030BC4FF00000704729BAB1FA81F111F0B9
:100460001801D1F120008440F2D1CA40CB4012F0F3
:10047000FF0213F0FF0330BCD01A70470149182067
:10048000ABBEFEE7260002007047000081B040F2DC
:100490009711C2F20001002008708DF80300FFE7F9
:1004A0009DF80300FE280FDCFFE79DF8032040F2D3
:1004B0009801C2F20001FF208854FFE79DF8030075
:1004C00001308DF80300EBE740F29801C2F2000121
:1004D000002081F86400012081F87200022081F878
:1004E0006200032081F86700042081F87000052075
:1004F00081F87700062081F8630001B070470000A2
:1005000080B540F68150C0F2000000F0F7FA40F6E6
:10051000F640C0F2000000F0F1FA40F6E150C0F2FF
:10052000000000F0EBFA40F6A850C0F2000000F026
:10053000E5FA40F6EE50C0F2000000F0DFFA40F6B7
:100540002060C0F2000000F0D9FA40F6FE40C0F290
:10055000000000F0D3FA80BD80B540F6D050C0F264
:10056000000000F0CBFA40F63950C0F2000000F075
:10057000C5FA40F68A60C0F2000000F0BFFA40F60B
:100580005C60C0F2000000F0B9FA40F6C550C0F25D
:10059000000000F0B3FA80BD10B54EF20810C4F2AE
:1005A0000F0000688006002814D4FFE74EF20811FF
:1005B000C4F20F01086840F020000860FFE74EF227
:1005C0000810C4F20F0000688006002801D4FFE77D
:1005D000F5E7FFE745F2285EC4F2020EDEF8000000
:1005E00020F00E00CEF8000045F22C5CC4F2020CA4
:1005F000DCF800004FF6F0718843CCF8000045F2BB
:100600000043C4F20203186840F00E00186045F27F
:100610002042C4F20202106820F00E00106045F281
:100620001C51C4F20201086840F00E00086045F257
:100630002054C4F2020444F24B30C4F64F40206010
:1006400045F22454C4F20204206840F01F002060E8
:10065000DEF8000020F01F00CEF80000DCF80000FB
:100660006FF31300CCF80000186820F01100186038
:10067000106820F01F00106045F21052C4F2020210
:10068000106840F011001060086840F01F0008601A
:1006900045F20441C4F20201086820F0110008602C
:1006A00045F20841C4F20201086820F01100086018
:1006B00045F20C41C4F20201086820F01100086004
:1006C00045F21C41C4F202011120086045F21041BC
:1006D000C4F20201086840F0110008604EF21C41AB
:1006E000CEF200010868022262F3575008604EF211
:1006F0000011CEF20001086840F080400860FFF76A
:10070000C5FE10BD80B584B0FFE7FFF725FF00F000
:100710002FF98DF80F0040F60270C0F2000000F0D3
:10072000EDF99DF80F0000F0D1F900F04DF89DF9BA
:100730000F0001460191312804D0FFE701983228CB
:1007400011D034E040F6A760C0F2000000F0D6F906
:1007500000F00EF9FFF704FE8DF80E009DF90E0073
:1007600000F04CFA23E040F60E70C0F2000000F0FA
:10077000C5F900F00FF902900298B8B1FFE70298AE
:10078000632813D8FFE7029800F068F840F651702C
:10079000C0F2000000F0B2F9029800F0C1F940F692
:1007A000A460C0F2000000F0A9F9FFE7FFE7FFE74F
:1007B0009DF90F003328A8D1FFE704B080BD0000E9
:1007C000704700007047000080B50D2000F07EF9F2
:1007D0000A2000F07BF980BD81B04EF27001C4F2B6
:1007E0000F010091086840F000400860086840F47C
:1007F000006008604EF26002C4F20F02106820F43C
:10080000F8601060106800F5A8601060086820F0BB
:100810007000086008680860086820F400500860EC
:10082000086840F0804008600868072262F39C5026
:100830000860FFE74EF25000C4F20F000068400667
:10084000002801D4FFE7F5E74EF27001C4F20F0172
:10085000086820F40060086001B0704781B0009023
:1008600000994CF25030414348F21F52C5F2EB124E
:10087000A1FB02214A0940F29811C2F200010A606C
:100880000968401A40F29C11C2F20001086001B0F0
:100890007047000080B545F2FC30C4F202000068E9
:1008A00010F00E0F14D0FFE745F2FC31C4F2020144
:1008B000086820F00E00086040F29C10C2F20000B0
:1008C000006801384EF21401CEF20001086015E014
:1008D00000F058F9024645F2FC31C4F20201086802
:1008E0001043086040F29810C2F20000006801381E
:1008F0004EF21401CEF200010860FFE74EF218013B
:10090000CEF20001002008604EF21001CEF200018C
:10091000086840F00100086080BD00004EF2100140
:10092000CEF20001002008604EF21403CEF2000364
:100930004CF24F321A6040F29813C2F200031A6070
:1009400040F29C13C2F200031A604EF21802CEF27B
:10095000000210604EF62052CEF200021068022310
:1009600063F35F701060086840F00700086070472C
:10097000FFE74CF21800C4F200000068C00600282F
:1009800001D5FFE7F5E74CF20000C4F20000006873
:10099000C0B2704780B584B0002003900290FFF78A
:1009A000E7FF8DF80700FFE79DF907000D283AD013
:1009B000FFE79DF90700302816DBFFE79DF90700E8
:1009C000392811DCFFE7039800EB80019DF907004F
:1009D00000EB4100303803900298013002909DF8FE
:1009E000070000F073F819E09DF90700082814D1FA
:1009F000FFE7029888B1FFE703984CF6CD41CCF6AB
:100A0000CC41A0FB0110C00803900298013802906D
:100A10009DF8070000F05AF8FFE7FFE7FFF7A8FF8F
:100A20008DF80700C0E7039804B080BD4EF20411B2
:100A3000C4F20F01086840F0010008604EF208118E
:100A4000C4F20F01086840F0010008604CF2300168
:100A5000C4F20001002008604CF22402C4F200023B
:100A60001B2010604CF22802C4F200020820106023
:100A70004CF22C02C4F2000260201060086840F2C0
:100A800001321043086044F22041C4F200010868BA
:100A900040F00300086044F21C51C4F200010868F1
:100AA00040F00300086044F22C51C4F200010868D1
:100AB000112262F30700086044F22851C4F20001D9
:100AC000086820F0030008607047000081B08DF8CE
:100AD0000300FFE74CF21800C4F200000068800633
:100AE000002801D5FFE7F5E79DF803004CF200016F
:100AF000C4F20001086001B07047000080B582B008
:100B00000190FFE70198007840B1FFE70198007875
:100B1000FFF7DCFF019801300190F3E702B080BDE0
:100B200080B582B0019001980A2816D3FFE701989A
:100B30004CF6CD41CCF6CC410091A0FB0110C00891
:100B4000FFF7EEFF00990198A0FB0121C90801EB16
:100B50008101A0EB41000190FFE701983030C0B265
:100B6000FFF7B4FF02B080BD40F29710C2F2000060
:100B7000017840F20000C2F2000000EBC1004068C2
:100B80007047000040F29710C2F20000017840F276
:100B90000000C2F2000010F83100704780B582B04A
:100BA00000200190FFF7C4FBFFF716FEFFF7F4FCEF
:100BB000FFF7B4FEFFF73AFFFFF7BCFBFFE7FFF7D5
:100BC0009FFCFFF7D5FE01460091312808D0FFE7D2
:100BD0000098322807D0FFE70098332806D008E0B5
:100BE000FFF790FD06E0FFF7EBFD03E0FFF7EAFDFE
:100BF00000E0FFE7FFF7E8FDE1E7000080B582B025
:100C00008DF807009DF9071040F29800C2F200002D
:100C10004056013068B3FFE79DF9071040F2980095
:100C2000C2F20000405C40F29711C2F2000108706D
:100C300045F2FC31C4F202010091086820F00E0078
:100C40000860FFF79FFF009902460868104308609C
:100C500040F6C840C0F20000FFF750FFFFF784FFE6
:100C6000FFF74CFF40F6C640C0F20000FFF746FF1A
:100C700006E040F6B040C0F20000FFF73FFFFFE79C
:100C800002B080BD10B500290AD00878002807D02E
:100C900005487844FFF7B4FB002801D0002010BDC0
:100CA0000248784410BD0000F2020000EA02000091
:100CB0000D0A496E76616C696420636F6C6F7220F7
:100CC00063686F6963650A000D0A4C4544203D2046
:100CD0000052656400507572706C650057686974E5
:100CE0006500426C7565004F6666004372616E0078
:100CF000477265656E004D435531200D0A00506CFA
:100D0000656173652063686F6F7365206120636F31
:100D10006D6D756E69636174696F6E206D6F64656A
:100D20002028656E7465722031206F722032206F2A
:100D3000722033293A200D0A00506C6561736520DA
:100D400073656C65637420616E206F7074696F6E7B
:100D50002066726F6D2074686520666F6C6C6F77AB
:100D6000696E67206C6973742028656E74657220E3
:100D700031206F722032206F722033293A200D0A01
:100D80000057656C636F6D6520746F204345435356
:100D9000203434372050726F6A656374203220200B
:100DA00055415254200D0A00312E20504320746FBB
:100DB000204D435531204C454420436F6E74726F73
:100DC0006C200D0A00332E2045786974200D0A002E
:100DD0000D0A4D6F64652031204D656E75200D0A3A
:100DE000004D61696E204D656E75200D0A00322E32
:100DF000204D43553120746F204D43553220436FB1
:100E00006C6F7220576865656C20284E6F742041A6
:100E10007661696C61626C6520596574290D0A0000
:100E2000332E20504320746F204D43553120746F72
:100E3000204D43553220746F205043204368617425
:100E400020526F6F6D20284E6F7420417661696C5F
:100E500061626C6520596574290D0A00322E2043A9
:100E600068616E676520746865206272696768747E
:100E70006E657373206F662063757272656E742081
:100E80004C45442873292E0D0A00312E2043686FEB
:100E90006F736520616E204C454420636F6C6F72E8
:100EA0002E0D0A00250A00506C656173652073657C
:100EB0006C656374204C454420636F6C6F723A20FC
:100EC0007228726564292C206728677265656E290F
:100ED0002C206228626C7565292C20702870757230
:100EE000706C65292C2077287768697465292C2017
:100EF00064286461726B292C2063286372616E29F7
:100F00000A00596F752063686F73653A2000506C52
:100F10006561736520656E74657220612064656328
:100F2000696D616C206E756D6265722066726F6DA1
:100F3000203020746F2031303020666F6C6C6F77FA
:100F4000656420627920612072657475726E3A2042
:100F5000004272696768746E6573732073657420EC
:100F6000746F200094100000000000203800000082
:100F7000C0020000CC10000038000020680500000E
:100F8000DC0200001001000043000000F8FFFFFF3A
:100F9000004040404040404040404141414141408C
:100FA0004040404040404040404040404040404041
:100FB00040050202020202020202020202020202D0
:100FC00002202020202020202020200202020202D5
:100FD000020290909090909010101010101010102D
:100FE0001010101010101010101010100202020239
:100FF000020288888888888808080808080808087D
:101000000808080808080808080808080202020278
:101010004000000000000000000000000000000090
:1010200000000000000000000000000000000000C0
:1010300000000000000000000000000000000000B0
:1010400000000000000000000000000000000000A0
:101050000000000000000000000000000000000090
:101060000000000000000000000000000000000080
:101070000000000000000000000000000000000070
:101080000000000000000000000000000000000060
:101090000000000000000000E70C0000020000005B
:1010A000D10C000004000000E20C00000800000069
:1010B000F00C000006000000D50C00000E0000003F
:0C10C000DC0C00000C000000EB0C000039
:040000050000026D88
:00000001FF
