:020000040000FA
:10000000600400206D020000710200007302000015
:100010007502000077020000790200000000000075
:100020000000000000000000000000007B02000053
:100030007D020000000000007F020000810200003D
:10004000830200008302000083020000830200009C
:1000500083020000830200006105000083020000AB
:10006000830200008302000083020000830200007C
:10007000830200008302000083020000830200006C
:10008000830200008302000083020000830200005C
:10009000830200008302000083020000830200004C
:1000A000830200008302000083020000830200003C
:1000B0008302000083020000B103000083020000FD
:1000C000830200008302000083020000830200001C
:1000D000830200008302000083020000830200000C
:1000E00083020000830200008302000083020000FC
:1000F00083020000830200008302000083020000EC
:1001000083020000830200008302000083020000DB
:1001100083020000830200008302000083020000CB
:1001200083020000830200008302000083020000BB
:1001300083020000830200008302000083020000AB
:1001400000000000000000000000000000000000AF
:10015000830200008302000083020000830200008B
:10016000000000000000000000000000000000008F
:10017000000000000000000000000000000000007F
:10018000000000000000000000000000000000006F
:10019000000000000000000000000000000000005F
:1001A000000000000000000000000000000000004F
:1001B000830200008302000083020000830200002B
:1001C000830200008302000083020000830200001B
:1001D000830200008302000083020000830200000B
:1001E00083020000830200008302000083020000FB
:1001F00083020000830200008302000083020000EB
:10020000830200008302000083020000000000005F
:1002100083020000830200008302000083020000CA
:1002200083020000830200008302000083020000BA
:1002300083020000830200008302000083020000AA
:10024000830200008302000083020000830200009A
:10025000830200008302000083020000830200008A
:1002600083020000830200008302000000F00AB84D
:10027000FEE7FEE7FEE7FEE7FEE7FEE7FEE7FEE756
:10028000FEE7FEE700F002F800F02CF80AA090E884
:10029000000C82448344AAF10107DA4501D100F041
:1002A00021F8AFF2090EBAE80F0013F0010F18BFE2
:1002B000FB1A43F0010318478C0400009C04000063
:1002C0000023002400250026103A28BF78C1FBD85F
:1002D000520728BF30C148BF0B6070471FB51FBD14
:1002E00010B510BD00F029F81146FFF7F7FF00F038
:1002F0000FFA00F047F803B4FFF7F2FF03BC00F079
:100300004FF8000072B6704762B67047EFF3108086
:1003100072B6704780F31088704730BF704702484C
:100320000249014A024B704760000020600400202F
:1003300060000020704770477047754600F02CF849
:10034000AE4605006946534620F00700854618B0C2
:1003500020B5FFF7E4FFBDE820404FF000064FF066
:1003600000074FF000084FF0000BAC46ACE8C009A6
:10037000ACE8C009ACE8C009ACE8C00921F007014D
:100380008D46704710B50446AFF300802046BDE8A7
:100390001040FFF7B0BF0000004870470000002089
:1003A00001491820ABBEFEE726000200704700009E
:1003B00080B582B000200190FFE7019843F67F01ED
:1003C000C0F20101884205D8FFE7FFE7019801303C
:1003D0000190F2E745F21440C4F202000068C00741
:1003E00078B1FFE745F21C41C4F202010120086028
:1003F00045F20801C4F20201086880F002000860BA
:10040000FFE745F21440C4F202000068C00600286D
:100410000FD5FFE745F21C41C4F20201102008602D
:1004200045F20800C4F202000068C0B200F058F9BA
:10043000FFE702B080BD00004EF20811C4F20F01C8
:10044000086840F020000860FFE74EF20811C4F28F
:100450000F01086800F02000086008B9FFE7F4E722
:1004600045F22051C4F2020144F24B30C4F64F4031
:10047000086045F22451C4F20201086840F01300FC
:10048000086045F20041C4F20201086840F0020031
:100490000860086820F01100086045F22041C4F2AD
:1004A0000201086820F01300086045F21C51C4F2F4
:1004B0000201086840F01300086045F22C51C4F2B4
:1004C000020108684FF60072CFF6F0721040086023
:1004D00045F22851C4F20201086820F013000860B8
:1004E00045F21051C4F20201086840F011000860A2
:1004F00045F20441C4F20201086820F011000860CE
:1005000045F20841C4F20201086820F011000860B9
:1005100045F20C41C4F20201086840F01100086085
:1005200045F21C41C4F202011120086045F210415D
:10053000C4F20201086840F0110008604EF21C414C
:10054000CEF200010868062262F3575008604EF2AE
:100550000011CEF20001086840F08040086070474A
:100560004DF23C00C4F200000068C00600281DD512
:10057000FFE74DF21800C4F200000068C006002832
:100580000DD4FFE74DF20000C4F20000006800F057
:10059000020045F20801C4F202010860FFE74DF2D3
:1005A0004401C4F2000110200860FFE7704700001A
:1005B00081B08DF803008DF802104EF20411C4F2E0
:1005C0000F01086840F0020008604EF20811C4F202
:1005D0000F01086840F002000860FFE74EF20810C3
:1005E000C4F20F0000688007002801D4FFE7F5E798
:1005F0004DF23001C4F20001002008604DF22401E8
:10060000C4F20001082008604DF22801C4F2000184
:100610002C2008604DF22C01C4F20001602008601B
:100620009DF80300C00748B1FFE74DF23801C4F25E
:100630000001086840F010000860FFE79DF8020024
:10064000C00748B1FFE74DF23801C4F20001086865
:1006500040F020000860FFE74DF23001C4F20001D5
:10066000086840F20132104308609DF803009DF8CD
:1006700002100843C00780B1FFE74EF20441CEF2FA
:1006800000010868052262F3575008604EF200111D
:10069000CEF2000140200860FFE745F22041C4F29D
:1006A0000001086840F00300086045F21C51C4F2E4
:1006B0000001086840F00300086045F22C51C4F2C4
:1006C00000010868112262F30700086045F2285112
:1006D000C4F20001086820F00300086001B0704710
:1006E00081B08DF80300FFE74DF21800C4F200005E
:1006F00000688006002801D5FFE7F5E79DF80300B4
:100700004DF20001C4F20001086001B07047000022
:1007100080B582B0002000900190FFF7F3FD0099B2
:100720000120FFF745FFFFF787FEFFF7EDFD00987B
:1007300045F20801C4F202010860FFE7FFF7EDFD92
:10074000FCE70000540700000000002060040000E7
:04075000C0020000E3
:040000050000026D88
:00000001FF
