:020000040000FA
:10000000700400206D020000710200007302000005
:100010007502000077020000790200000000000075
:100020000000000000000000000000007B02000053
:100030007D020000000000007F020000990800001F
:10004000830200008302000083020000830200009C
:10005000830200008302000083020000830200008C
:10006000830200008302000083020000830200007C
:10007000830200008302000083020000830200006C
:10008000830200008302000083020000830200005C
:10009000830200008302000083020000830200004C
:1000A000830200008302000083020000830200003C
:1000B000830200008302000083020000830200002C
:1000C000830200008302000083020000830200001C
:1000D000830200008302000083020000830200000C
:1000E00083020000830200008302000083020000FC
:1000F00083020000830200008302000083020000EC
:1001000083020000830200008302000083020000DB
:1001100083020000830200008302000083020000CB
:1001200083020000830200008302000083020000BB
:1001300083020000830200008302000083020000AB
:1001400000000000000000000000000000000000AF
:10015000830200008302000083020000830200008B
:10016000000000000000000000000000000000008F
:10017000000000000000000000000000000000007F
:10018000000000000000000000000000000000006F
:10019000000000000000000000000000000000005F
:1001A000000000000000000000000000000000004F
:1001B000830200008302000083020000830200002B
:1001C000830200008302000083020000830200001B
:1001D000830200008302000083020000830200000B
:1001E00083020000830200008302000083020000FB
:1001F00083020000830200008302000083020000EB
:10020000830200008302000083020000000000005F
:1002100083020000830200008302000083020000CA
:1002200083020000830200008302000083020000BA
:1002300083020000830200008302000083020000AA
:10024000830200008302000083020000830200009A
:10025000830200008302000083020000830200008A
:1002600083020000830200008302000000F00AB84D
:10027000FEE7FEE7FEE7FEE7FEE7FEE7FEE7FEE756
:10028000FEE7FEE700F002F800F02CF80AA090E884
:10029000000C82448344AAF10107DA4501D100F041
:1002A00021F8AFF2090EBAE80F0013F0010F18BFE2
:1002B000FB1A43F0010318472C0C00003C0C000013
:1002C0000023002400250026103A28BF78C1FBD85F
:1002D000520728BF30C148BF0B6070471FB51FBD14
:1002E00010B510BD00F029F81146FFF7F7FF00F038
:1002F0003FFC00F047F803B4FFF7F2FF03BC00F047
:100300004FF8000072B6704762B67047EFF3108086
:1003100072B6704780F31088704730BF704702484C
:100320000249014A024B704770000020700400200F
:1003300070000020704770477047754600F02CF839
:10034000AE4605006946534620F00700854618B0C2
:1003500020B5FFF7E4FFBDE820404FF000064FF066
:1003600000074FF000084FF0000BAC46ACE8C009A6
:10037000ACE8C009ACE8C009ACE8C00921F007014D
:100380008D46704710B50446AFF300802046BDE8A7
:100390001040FFF7B0BF0000004870470000002089
:1003A00001491820ABBEFEE726000200704700009E
:1003B00080B540F66040C0F2000000F0A3FB40F6BC
:1003C000D530C0F2000000F09DFB40F6C040C0F206
:1003D000000000F097FB40F68740C0F2000000F0FC
:1003E00091FB40F6CD40C0F2000000F08BFB40F6E0
:1003F000FF40C0F2000000F085FB40F6DD30C0F2A7
:10040000000000F07FFB80BD80B540F6AF40C0F239
:10041000000000F077FB40F61840C0F2000000F04A
:1004200071FB40F66950C0F2000000F06BFB40F633
:100430003B50C0F2000000F065FB40F6A440C0F263
:10044000000000F05FFB80BDB0B54EF20810C4F2B2
:100450000F0000688006002814D4FFE74EF2081150
:10046000C4F20F01086840F020000860FFE74EF278
:100470000810C4F20F0000688006002801D4FFE7CE
:10048000F5E7FFE745F22054C4F2020444F24B3092
:10049000C4F64F40206045F2285EC4F2020EDEF83A
:1004A000001021F00E01CEF8001045F22C5CC4F2D1
:1004B000020CDCF800104FF6F0729143CCF80010FB
:1004C00045F20043C4F20203196841F00E011960BD
:1004D00045F22042C4F20202116821F00E011160BF
:1004E00045F21C51C4F202010D6845F00E050D6085
:1004F000206045F22454C4F20204206840F01F003A
:100500002060DEF8000020F01F00CEF80000DCF8CC
:1005100000006FF31300CCF80000186820F0110001
:100520001860106820F01F00106045F21052C4F2ED
:100530000202106840F011001060086840F01F00CF
:10054000086045F20441C4F20201086820F011007D
:10055000086045F20841C4F20201086820F0110069
:10056000086045F20C41C4F20201086820F0110055
:10057000086045F21C41C4F202011120086045F2F6
:100580001041C4F20201086840F0110008604EF208
:100590001C41CEF200010868022262F35750086045
:1005A0004EF20011CEF20001086840F08040086071
:1005B000B0BD000080B584B0FFE7FFF725FF00F075
:1005C000DBF98DF80F0040F67F60C0F2000000F00C
:1005D00099FA9DF80F0000F07DFA00F09DF89DF962
:1005E0000F0001460191312805D0FFE7019832281C
:1005F00000F0608082E040F6A250C0F2000000F0FF
:1006000081FA00F0B9F98DF80E009DF90E0000F0A6
:10061000E9F8632000F0CAF89DF90E00623801463F
:10062000009115283ED80099DFE801F019352E3CDD
:100630003C123C3C3C3C3C3C3C3C203C0B3C3C3C71
:100640003C2740F60B60C0F2000000F05BFA30E09F
:1006500040F65560C0F2000000F054FA29E040F680
:100660004360C0F2000000F04DFA22E040F61C604A
:10067000C0F2000000F046FA1BE040F63060C0F225
:10068000000000F03FFA14E040F6FD50C0F2000018
:1006900000F038FA0DE040F66860C0F2000000F0AB
:1006A00031FA06E040F68350C0F2000000F02AFA6A
:1006B000FFE723E040F68B60C0F2000000F022FA72
:1006C00000F06CF902900298B8B1FFE70298632835
:1006D00013D8FFE7029800F069F840F6CE60C0F248
:1006E000000000F00FFA029800F01EFA40F69F504A
:1006F000C0F2000000F006FAFFE7FFE7FFE79DF910
:100700000F0033287FF459AFFFE704B080BD00002D
:10071000704700007047000080B50D2000F0DAF946
:100720000A2000F0D7F980BD81B04EF27001C4F20A
:100730000F010091086840F000400860086840F42C
:10074000006008604EF26002C4F20F02106820F4EC
:10075000F8601060106800F5A8601060086820F06C
:100760007000086008680860086820F4005008609D
:10077000086840F0804008600868072262F39C50D7
:100780000860FFE74EF25000C4F20F000068400618
:10079000002801D4FFE7F5E74EF27001C4F20F0123
:1007A000086820F40060086001B0704781B00090D4
:1007B00000994CF25030414348F21F52C5F2EB12FF
:1007C000A1FB02214A0940F26401C2F200010A6061
:1007D0000968401A40F26801C2F20001086001B0E5
:1007E0007047000082B08DF807009DF9070062385D
:1007F0000146009115283ED80099DFE801F019352F
:100800000B3C3C203C3C3C3C3C3C3C3C273C123CB4
:100810003C3C3C2E40F26001C2F200010020087016
:1008200029E040F26001C2F200010120087022E0DC
:1008300040F26001C2F20001022008701BE040F2A9
:100840006001C2F200010320087014E040F2600170
:10085000C2F20001042008700DE040F26001C2F213
:1008600000010520087006E040F26001C2F20001BC
:1008700006200870FFE740F26000C2F20000017835
:1008800040F6CE30C0F20000405C45F2FC31C4F2CC
:100890000201086002B0704745F2FC30C4F2020069
:1008A000006810F00E0F14D0FFE745F2FC31C4F2DF
:1008B0000201086820F00E00086040F26800C2F2F1
:1008C0000000006801384EF21401CEF20001086009
:1008D0001CE040F26000C2F20000017840F6CE3029
:1008E000C0F20000425C45F2FC31C4F2020108682B
:1008F0001043086040F26400C2F200000068013852
:100900004EF21401CEF200010860FFE74EF218012A
:10091000CEF20001002008604EF21001CEF200017C
:10092000086840F0010008607047000040F2600174
:10093000C2F20001002008704EF21001CEF2000158
:1009400008604EF21403CEF2000346F2A7121A60BA
:100950004EF21802CEF2000210604EF62052CEF295
:1009600000021068022363F35F701060086840F0B3
:100970000700086070470000FFE74CF21800C4F25F
:1009800000000068C006002801D5FFE7F5E74CF23B
:100990000000C4F200000068C0B2704780B584B0A7
:1009A000002003900290FFF7E7FF8DF80700FFE7B4
:1009B0009DF907000D283AD0FFE79DF90700302880
:1009C00016DBFFE79DF90700392811DCFFE70398E4
:1009D00000EB80019DF9070000EB410030380390E7
:1009E0000298013002909DF8070000F073F819E0BA
:1009F0009DF90700082814D1FFE7029888B1FFE7A6
:100A000003984CF6CD41CCF6CC41A0FB0110C008B8
:100A100003900298013802909DF8070000F05AF800
:100A2000FFE7FFE7FFF7A8FF8DF80700C0E703988F
:100A300004B080BD4EF20411C4F20F01086840F00A
:100A4000010008604EF20811C4F20F01086840F07E
:100A5000010008604CF23001C4F20001002008607F
:100A60004CF22402C4F200021B2010604CF2280257
:100A7000C4F20002082010604CF22C02C4F2000202
:100A800060201060086840F201321043086044F2B0
:100A90002041C4F20001086840F00300086044F2FD
:100AA0001C51C4F20001086840F00300086044F2E1
:100AB0002C51C4F200010868112262F3070008609B
:100AC00044F22851C4F20001086820F003000860D5
:100AD0007047000081B08DF80300FFE74CF218006A
:100AE000C4F2000000688006002801D5FFE7F5E7A2
:100AF0009DF803004CF20001C4F20001086001B04F
:100B00007047000080B582B00190FFE7019800783F
:100B100040B1FFE701980078FFF7DCFF0198013052
:100B20000190F3E702B080BD80B582B001900198DA
:100B30000A2816D3FFE701984CF6CD41CCF6CC41FC
:100B40000091A0FB0110C008FFF7EEFF009901988B
:100B5000A0FB0121C90801EB8101A0EB410001903C
:100B6000FFE701983030C0B2FFF7B4FF02B080BD9C
:100B700080B582B000200190FFF7C4FBFFF7D4FDE1
:100B8000FFF762FCFFF7D2FEFFF754FFFFF7BCFB55
:100B9000FFE7FFF70DFCFFF7EFFE0146009131285C
:100BA00008D0FFE70098322807D0FFE700983328E5
:100BB00006D008E0FFF7FEFC06E0FFF7A9FD03E022
:100BC000FFF7A8FD00E0FFE7FFF7A6FDE1E7000261
:100BD0000408060E0C4D435531200D0A00506C657B
:100BE0006173652063686F6F7365206120636F6D4B
:100BF0006D756E69636174696F6E206D6F646520D9
:100C000028656E7465722031206F722032206F72F9
:100C10002033293A200D0A00506C656173652073FA
:100C2000656C65637420616E206F7074696F6E20EF
:100C300066726F6D2074686520666F6C6C6F776983
:100C40006E67206C6973742028656E74657220313C
:100C5000206F722032206F722033293A200D0A0053
:100C600057656C636F6D6520746F20434543532057
:100C70003434372050726F6A6563742032202055F7
:100C8000415254200D0A00312E20504320746F2011
:100C90004D435531204C454420436F6E74726F6C48
:100CA000200D0A00332E2045786974200D0A000DAE
:100CB0000A4D6F64652031204D656E75200D0A0068
:100CC0004D61696E204D656E75200D0A00322E2033
:100CD0004D43553120746F204D43553220436F6C86
:100CE0006F7220576865656C20284E6F74204176BE
:100CF00061696C61626C6520596574290D0A003365
:100D00002E20504320746F204D43553120746F20A6
:100D10004D43553220746F20504320436861742046
:100D2000526F6F6D20284E6F7420417661696C613F
:100D3000626C6520596574290D0A00322E204368C3
:100D4000616E676520746865206272696768746E99
:100D5000657373206F662063757272656E74204CC4
:100D600045442873292E0D0A00312E2043686F6FE9
:100D7000736520616E204C454420636F6C6F722E4A
:100D80000D0A000D0A496E76616C696420636F6C10
:100D90006F722073656C656374696F6E210A00253C
:100DA0000A00506C656173652073656C656374201F
:100DB0004C454420636F6C6F723A207228726564F0
:100DC000292C206728677265656E292C20622862AD
:100DD0006C7565292C207028707572706C65292CD3
:100DE0002077287768697465292C206428646172EB
:100DF0006B292C2063286372616E290A000D0A4C4E
:100E00004544206973206F66660A000D0A526564C6
:100E1000204C4544206973206F6E0A000D0A5075FE
:100E200072706C65204C4544206973206F6E0A0017
:100E30000D0A5768697465204C4544206973206F1A
:100E40006E0A000D0A426C7565204C45442069739A
:100E5000206F6E0A000D0A477265656E204C45448E
:100E6000206973206F6E0A000D0A4372616E62651D
:100E7000727279204C4544206973206F6E0A0059C4
:100E80006F752063686F73653A2000506C656173FD
:100E90006520656E746572206120646563696D61AB
:100EA0006C206E756D6265722066726F6D203020E9
:100EB000746F2031303020666F6C6C6F7765642002
:100EC000627920612072657475726E3A20004272F8
:100ED000696768746E6573732073657420746F201E
:100EE00000000000F40E000000000020700400006C
:040EF000C00200003C
:040000050000026D88
:00000001FF
