:020000040000FA
:10000000680400206D02000071020000730200000D
:100010007502000077020000790200000000000075
:100020000000000000000000000000007B02000053
:100030007D020000000000007F020000810200003D
:10004000830200008302000083020000830200009C
:10005000830200008302000071050000830200009B
:10006000830200008302000083020000830200007C
:10007000830200008302000083020000830200006C
:10008000830200008302000083020000830200005C
:10009000830200008302000083020000830200004C
:1000A000830200008302000083020000830200003C
:1000B0008302000083020000B103000083020000FD
:1000C000830200008302000083020000830200001C
:1000D000830200008302000083020000830200000C
:1000E00083020000830200008302000083020000FC
:1000F00083020000830200008302000083020000EC
:1001000083020000830200008302000083020000DB
:1001100083020000830200008302000083020000CB
:1001200083020000830200008302000083020000BB
:1001300083020000830200008302000083020000AB
:1001400000000000000000000000000000000000AF
:10015000830200008302000083020000830200008B
:10016000000000000000000000000000000000008F
:10017000000000000000000000000000000000007F
:10018000000000000000000000000000000000006F
:10019000000000000000000000000000000000005F
:1001A000000000000000000000000000000000004F
:1001B000830200008302000083020000830200002B
:1001C000830200008302000083020000830200001B
:1001D000830200008302000083020000830200000B
:1001E00083020000830200008302000083020000FB
:1001F00083020000830200008302000083020000EB
:10020000830200008302000083020000000000005F
:1002100083020000830200008302000083020000CA
:1002200083020000830200008302000083020000BA
:1002300083020000830200008302000083020000AA
:10024000830200008302000083020000830200009A
:10025000830200008302000083020000830200008A
:1002600083020000830200008302000000F00AB84D
:10027000FEE7FEE7FEE7FEE7FEE7FEE7FEE7FEE756
:10028000FEE7FEE700F002F800F02CF80AA090E884
:10029000000C82448344AAF10107DA4501D100F041
:1002A00021F8AFF2090EBAE80F0013F0010F18BFE2
:1002B000FB1A43F001031847BC040000CC04000003
:1002C0000023002400250026103A28BF78C1FBD85F
:1002D000520728BF30C148BF0B6070471FB51FBD14
:1002E00010B510BD00F029F81146FFF7F7FF00F038
:1002F00021FA00F047F803B4FFF7F2FF03BC00F067
:100300004FF8000072B6704762B67047EFF3108086
:1003100072B6704780F31088704730BF704702484C
:100320000249014A024B704768000020680400201F
:1003300068000020704770477047754600F02CF841
:10034000AE4605006946534620F00700854618B0C2
:1003500020B5FFF7E4FFBDE820404FF000064FF066
:1003600000074FF000084FF0000BAC46ACE8C009A6
:10037000ACE8C009ACE8C009ACE8C00921F007014D
:100380008D46704710B50446AFF300802046BDE8A7
:100390001040FFF7B0BF0000004870470000002089
:1003A00001491820ABBEFEE726000200704700009E
:1003B00080B582B000200190FFE7019843F67F01ED
:1003C000C0F20101884205D8FFE7FFE7019801303C
:1003D0000190F2E745F21440C4F202000068C00741
:1003E000D8B1FFE745F21C41C4F2020101200860C8
:1003F00040F26000C2F200000178013101F0030117
:100400000170017840F27070C0F20000405C45F26B
:100410003801C4F202010860FFE745F21440C4F25B
:1004200002000068C00600280ED5FFE745F21C4117
:10043000C4F202011020086040F26000C2F2000025
:10044000007800F05FF9FFE702B080BD4EF20811BE
:10045000C4F20F01086840F020000860FFE74EF288
:100460000811C4F20F01086800F02000086008B904
:10047000FFE7F4E745F22051C4F2020144F24B30A9
:10048000C4F64F40086045F22451C4F202010868E6
:1004900040F01F00086045F20041C4F20201086804
:1004A00040F00E000860086820F01100086045F276
:1004B0002041C4F20201086820F01F00086045F2E4
:1004C0001C51C4F20201086840F01F00086045F2A8
:1004D0002C51C4F2020108686FF31300086045F262
:1004E0002851C4F20201086820F01F00086045F29C
:1004F0001051C4F20201086840F01100086045F292
:100500000441C4F20201086820F01100086045F2BD
:100510000841C4F20201086820F01100086045F2A9
:100520000C41C4F20201086840F01100086045F275
:100530001C41C4F202011120086045F21041C4F2CE
:100540000201086840F0110008604EF21C41CEF232
:1005500000010868062262F3575008604EF200114D
:10056000CEF20001086840F080400860704700004B
:100570004DF23C00C4F200000068C006002828D5F7
:10058000FFE74DF21800C4F200000068C006002822
:1005900018D4FFE74DF20000C4F20000006800F03C
:1005A000030140F26000C2F200000170017840F2E5
:1005B0007070C0F20000405C45F23801C4F20201E4
:1005C0000860FFE74DF24401C4F20001102008600A
:1005D000FFE7704781B08DF803008DF802104EF2EE
:1005E0000411C4F20F01086840F0020008604EF2E6
:1005F0000811C4F20F01086840F002000860FFE72C
:100600004EF20810C4F20F0000688007002801D4E1
:10061000FFE7F5E74DF23001C4F200010020086069
:100620004DF22401C4F20001082008604DF22801B7
:10063000C4F200012C2008604DF22C01C4F200012C
:10064000602008609DF80300C00748B1FFE74DF245
:100650003801C4F20001086840F010000860FFE7AC
:100660009DF80200C00748B1FFE74DF23801C4F21F
:100670000001086840F020000860FFE74DF23001FB
:10068000C4F20001086840F20132104308609DF88E
:1006900003009DF802100843C00780B1FFE74EF247
:1006A0000441CEF200010868052262F35750086049
:1006B0004EF20011CEF2000140200860FFE745F243
:1006C0002041C4F20001086840F00300086045F2D0
:1006D0001C51C4F20001086840F00300086045F2B4
:1006E0002C51C4F200010868112262F3070008606F
:1006F00045F22851C4F20001086820F003000860A8
:1007000001B0704781B08DF80300FFE74DF218008B
:10071000C4F2000000688006002801D5FFE7F5E775
:100720009DF803004DF20001C4F20001086001B021
:100730007047000080B582B0002000900190FFF764
:10074000E1FD00990120FFF745FFFFF77FFEFFF76E
:10075000DBFD009845F23801C4F20201086040F266
:100760006001C2F200010870FFE7FFF7D6FDFCE769
:100770000002040884070000000000206804000054
:04078000C0020000B3
:040000050000026D88
:00000001FF
