:020000040000FA
:10000000A80500206D0200007102000073020000CC
:100010007502000077020000790200000000000075
:100020000000000000000000000000007B02000053
:100030007D020000000000007F020000990800001F
:10004000830200008302000083020000830200009C
:10005000830200008302000083020000830200008C
:10006000830200008302000083020000830200007C
:10007000830200008302000083020000830200006C
:10008000830200008302000083020000830200005C
:10009000830200008302000083020000830200004C
:1000A000830200008302000083020000830200003C
:1000B000830200008302000083020000830200002C
:1000C000830200008302000083020000830200001C
:1000D000830200008302000083020000830200000C
:1000E00083020000830200008302000083020000FC
:1000F00083020000830200008302000083020000EC
:1001000083020000830200008302000083020000DB
:1001100083020000830200008302000083020000CB
:1001200083020000830200008302000083020000BB
:1001300083020000830200008302000083020000AB
:1001400000000000000000000000000000000000AF
:10015000830200008302000083020000830200008B
:10016000000000000000000000000000000000008F
:10017000000000000000000000000000000000007F
:10018000000000000000000000000000000000006F
:10019000000000000000000000000000000000005F
:1001A000000000000000000000000000000000004F
:1001B000830200008302000083020000830200002B
:1001C000830200008302000083020000830200001B
:1001D000830200008302000083020000830200000B
:1001E00083020000830200008302000083020000FB
:1001F00083020000830200008302000083020000EB
:10020000830200008302000083020000000000005F
:1002100083020000830200008302000083020000CA
:1002200083020000830200008302000083020000BA
:1002300083020000830200008302000083020000AA
:10024000830200008302000083020000830200009A
:10025000830200008302000083020000830200008A
:1002600083020000830200008302000000F00AB84D
:10027000FEE7FEE7FEE7FEE7FEE7FEE7FEE7FEE756
:10028000FEE7FEE700F002F800F043F80AA090E86D
:10029000000C82448344AAF10107DA4501D100F041
:1002A00038F8AFF2090EBAE80F0013F0010F18BFCB
:1002B000FB1A43F001031847C40C0000E40C0000D3
:1002C000103A24BF78C878C1FAD8520724BF30C882
:1002D00030C144BF04680C60704700000023002454
:1002E00000250026103A28BF78C1FBD8520728BF46
:1002F00030C148BF0B6070471FB500F049F80400DB
:100300000020002100F0C0FC401C60601FBD10B543
:1003100010BD00F045F81146FFF7EEFF00F040FC7D
:1003200000F063F803B4FFF7F2FF03BC00F0A6F897
:1003300072B6704762B67047EFF3108072B67047BE
:1003400080F31088704730BF704702480249014A65
:10035000024B7047A8010020A8050020A80100203A
:1003600010B5044600F00CF80068005DC00602D528
:1003700004F1200010BD204610BD70477047704743
:1003800010B500F005F8001D10BD00BFFD0800000D
:10039000004870476000002000487047400000207F
:1003A0007546FFF7F9FFAE4605006946534620F053
:1003B0000700854618B020B5FFF7C7FFBDE820400D
:1003C0004FF000064FF000074FF000084FF0000B11
:1003D000AC46ACE8C009ACE8C009ACE8C009ACE880
:1003E000C00921F007018D46704710B50446AFF3F0
:1003F00000802046BDE81040FFF794BF00000000D9
:1004000030B44FF0013C50F8042B51F8043BCCFAC7
:1004100052F4D51A20D1FCB950F8042B51F8043B02
:10042000CCFA52F4D51A17D1B4B950F8042B51F8BC
:10043000043BCCFA52F4D51A0ED16CB950F8042B07
:1004400051F8043BCCFA52F4D51A05D1002CDAD07D
:1004500030BC4FF00000704729BAB1FA81F111F0B9
:100460001801D1F120008440F2D1CA40CB4012F0F3
:10047000FF0213F0FF0330BCD01A70470149182067
:10048000ABBEFEE7260002007047000081B040F2DC
:100490009F11C2F20001002008708DF80300FFE7F1
:1004A0009DF80300FE280FDCFFE79DF8032040F2D3
:1004B000A001C2F20001FF208854FFE79DF803006D
:1004C00001308DF80300EBE740F2A001C2F2000119
:1004D000002081F86400012081F87200022081F878
:1004E0006700032081F86200042081F8790005206C
:1004F00081F86300062081F87000072081F87700FA
:1005000001B0704780B540F68C50C0F2000000F09A
:10051000F7FA40F60150C0F2000000F0F1FA40F6A0
:10052000EC50C0F2000000F0EBFA40F6B350C0F21D
:10053000000000F0E5FA40F6F950C0F2000000F0CB
:10054000DFFA40F62B60C0F2000000F0D9FA40F666
:100550000950C0F2000000F0D3FA80BD80B540F62B
:10056000DB50C0F2000000F0CBFA40F64450C0F27D
:10057000000000F0C5FA40F69560C0F2000000F0FF
:10058000BFFA40F66760C0F2000000F0B9FA40F62A
:10059000D050C0F2000000F0B3FA80BD10B54EF2AA
:1005A0000810C4F20F0000688006002814D4FFE78A
:1005B0004EF20811C4F20F01086840F020000860F4
:1005C000FFE74EF20810C4F20F0000688006002812
:1005D00001D4FFE7F5E7FFE745F2285EC4F2020E1B
:1005E000DEF8000020F00E00CEF8000045F22C5C92
:1005F000C4F2020CDCF800004FF6F0718843CCF82E
:10060000000045F20043C4F20203186840F00E00F7
:10061000186045F22042C4F20202106820F00E0079
:10062000106045F21C51C4F20201086840F00E004F
:10063000086045F22054C4F2020444F24B30C4F680
:100640004F40206045F22454C4F20204206840F078
:100650001F002060DEF8000020F01F00CEF8000030
:10066000DCF800006FF31300CCF80000186820F0ED
:1006700011001860106820F01F00106045F2105241
:10068000C4F20202106840F011001060086840F0E7
:100690001F00086045F20441C4F20201086820F01E
:1006A0001100086045F20841C4F20201086820F018
:1006B0001100086045F20C41C4F20201086820F004
:1006C0001100086045F21C41C4F2020111200860CB
:1006D00045F21041C4F20201086840F011000860C0
:1006E0004EF21C41CEF200010868022262F357501C
:1006F00008604EF20011CEF20001086840F0804020
:100700000860FFF7C3FE10BD80B584B0FFE7FFF7B8
:1007100025FF00F02FF98DF80F0040F61870C0F299
:10072000000000F0EDF99DF80F0000F0D1F900F0A5
:100730004DF89DF90F0001460191312804D0FFE7E3
:100740000198322811D034E040F6B260C0F20000C7
:1007500000F0D6F900F00EF9FFF702FE8DF80E005A
:100760009DF90E0000F04CFA23E040F62470C0F230
:10077000000000F0C5F900F00FF902900298B8B13E
:10078000FFE70298632813D8FFE7029800F068F8A3
:1007900040F66770C0F2000000F0B2F9029800F075
:1007A000C1F940F6AF60C0F2000000F0A9F9FFE720
:1007B000FFE7FFE79DF90F003328A8D1FFE704B05A
:1007C00080BD0000704700007047000080B50D201C
:1007D00000F07EF90A2000F07BF980BD81B04EF276
:1007E0007001C4F20F010091086840F000400860F9
:1007F000086840F4006008604EF26002C4F20F0224
:10080000106820F4F8601060106800F5A8601060AF
:10081000086820F07000086008680860086820F424
:1008200000500860086840F08040086008680722AF
:1008300062F39C500860FFE74EF25000C4F20F00D4
:1008400000684006002801D4FFE7F5E74EF270018A
:10085000C4F20F01086820F40060086001B070471E
:1008600081B0009000994CF25030414348F21F5241
:10087000C5F2EB12A1FB02214A0940F2A011C2F21B
:1008800000010A600968401A40F2A411C2F2000196
:10089000086001B07047000080B545F2FC30C4F23A
:1008A0000200006810F00E0F14D0FFE745F2FC3193
:1008B000C4F20201086820F00E00086040F2A410A3
:1008C000C2F20000006801384EF21401CEF20001BD
:1008D000086015E000F058F9024645F2FC31C4F218
:1008E000020108681043086040F2A010C2F2000044
:1008F000006801384EF21401CEF200010860FFE7F3
:100900004EF21801CEF20001002008604EF21001F4
:10091000CEF20001086840F00100086080BD0000D0
:100920004EF21001CEF20001002008604EF21403D6
:10093000CEF200034CF24F321A6040F2A013C2F222
:1009400000031A6040F2A413C2F200031A604EF2D0
:100950001802CEF2000210604EF62052CEF20002D3
:100960001068022363F35F701060086840F00700AE
:1009700008607047FFE74CF21800C4F200000068FE
:10098000C006002801D5FFE7F5E74CF20000C4F2ED
:1009900000000068C0B2704780B584B000200390AA
:1009A0000290FFF7E7FF8DF80700FFE79DF90700CA
:1009B0000D283AD0FFE79DF90700302816DBFFE746
:1009C0009DF90700392811DCFFE7039800EB80014F
:1009D0009DF9070000EB4100303803900298013088
:1009E00002909DF8070000F073F819E09DF90700E8
:1009F000082814D1FFE7029888B1FFE703984CF666
:100A0000CD41CCF6CC41A0FB0110C0080390029868
:100A1000013802909DF8070000F05AF8FFE7FFE761
:100A2000FFF7A8FF8DF80700C0E7039804B080BD6A
:100A30004EF20411C4F20F01086840F00100086092
:100A40004EF20811C4F20F01086840F0010008607E
:100A50004CF23001C4F20001002008604CF2240284
:100A6000C4F20002362010604CF22802C4F20002E8
:100A7000102010604CF22C02C4F2000260201060C2
:100A8000086840F201321043086044F22041C4F289
:100A90000001086840F00300086044F21C51C4F2F1
:100AA0000001086840F00300086044F22C51C4F2D1
:100AB00000010868112262F30700086044F228511F
:100AC000C4F20001086820F00300086070470000CD
:100AD00081B08DF80300FFE74CF21800C4F200006B
:100AE00000688006002801D5FFE7F5E79DF80300C0
:100AF0004CF20001C4F20001086001B07047000030
:100B000080B582B00190FFE70198007840B1FFE71F
:100B100001980078FFF7DCFF019801300190F3E7BE
:100B200002B080BD80B582B0019001980A2816D32A
:100B3000FFE701984CF6CD41CCF6CC410091A0FBEB
:100B40000110C008FFF7EEFF00990198A0FB0121FA
:100B5000C90801EB8101A0EB41000190FFE701987A
:100B60003030C0B2FFF7B4FF02B080BD40F29F103A
:100B7000C2F20000017840F20000C2F2000000EB77
:100B8000C10040687047000040F29F10C2F20000B0
:100B9000017840F20000C2F2000010F83100704706
:100BA00080B582B000200190FFF7C2FBFFF716FE70
:100BB000FFF7F4FCFFF7B4FEFFF73AFFFFF7BAFBCD
:100BC000FFE7FFF79FFCFFF7D5FE014600913128B4
:100BD00008D0FFE70098322807D0FFE700983328B5
:100BE00006D008E0FFF790FD06E0FFF7EBFD03E01D
:100BF000FFF7EAFD00E0FFE7FFF7E8FDE1E70000AF
:100C000080B582B08DF807009DF9071040F2A00072
:100C1000C2F200004056013068B3FFE79DF90710AB
:100C200040F2A000C2F20000405C40F29F11C2F20C
:100C30000001087045F2FC31C4F20201009108681D
:100C400020F00E000860FFF79FFF00990246086839
:100C50001043086040F6CC40C0F20000FFF750FFA0
:100C6000FFF784FFFFF74CFF40F6CA40C0F20000D8
:100C7000FFF746FF06E040F6B440C0F20000FFF781
:100C80003FFFFFE702B080BD10B500290AD0087809
:100C9000002807D005487844FFF7B2FB002801D0B0
:100CA000002010BD0248784410BD0000060300007B
:100CB000FE0200000D0A496E76616C696420636F64
:100CC0006C6F722063686F6963650A000D0A4C459A
:100CD00044203D200052656400507572706C6500C0
:100CE000576869746500426C7565004F666600431D
:100CF00072616E00477265656E0059656C6C6F7746
:100D0000004D435531200D0A00506C65617365201C
:100D100063686F6F7365206120636F6D6D756E69B9
:100D2000636174696F6E206D6F64652028656E74F1
:100D300065722031206F722032206F722033293A81
:100D4000200D0A00506C656173652073656C6563E6
:100D50007420616E206F7074696F6E2066726F6DA3
:100D60002074686520666F6C6C6F77696E67206CA5
:100D70006973742028656E7465722031206F72204B
:100D800032206F722033293A200D0A0057656C63B8
:100D90006F6D6520746F20434543532034343720F2
:100DA00050726F6A6563742032202055415254207E
:100DB0000D0A00312E20504320746F204D435531D1
:100DC000204C454420436F6E74726F6C200D0A00F6
:100DD000332E2045786974200D0A000D0A4D6F648A
:100DE000652031204D656E75200D0A004D61696EDC
:100DF000204D656E75200D0A00322E204D43553171
:100E000020746F204D43553220436F6C6F72205712
:100E10006865656C20284E6F7420417661696C614D
:100E2000626C6520596574290D0A00332E205043E9
:100E300020746F204D43553120746F204D4355323F
:100E400020746F205043204368617420526F6F6D8F
:100E500020284E6F7420417661696C61626C652058
:100E6000596574290D0A00322E204368616E67654A
:100E700020746865206272696768746E6573732098
:100E80006F662063757272656E74204C45442873DA
:100E9000292E0D0A00312E2043686F6F7365206183
:100EA0006E204C454420636F6C6F722E0D0A002536
:100EB0000A00506C656173652073656C656374200E
:100EC0004C454420636F6C6F723A206428646172F1
:100ED0006B292C207228726564292C206728677280
:100EE00065656E292C206228626C7565292C207935
:100EF0002879656C6C6F77292C2063286372616E8A
:100F0000292C207028707572706C65292C20772828
:100F10007768697465290A00596F752063686F7373
:100F2000653A2000506C6561736520656E7465726A
:100F3000206120646563696D616C206E756D62650A
:100F4000722066726F6D203020746F203130302037
:100F5000666F6C6C6F7765642062792061207265C2
:100F60007475726E3A20004272696768746E6573B8
:100F7000732073657420746F20000000AC100000B3
:100F80000000002040000000C0020000EC10000043
:100F90004000002068050000DC0200001001000095
:100FA00043000000F8FFFFFF004040404040404049
:100FB000404041414141414040404040404040402C
:100FC00040404040404040404005020202020202D0
:100FD000020202020202020202202020202020201F
:100FE0002020200202020202020290909090909033
:100FF00010101010101010101010101010101010F1
:101000001010101002020202020288888888888864
:101010000808080808080808080808080808080850
:101020000808080802020202400000000000000058
:1010300000000000000000000000000000000000B0
:1010400000000000000000000000000000000000A0
:101050000000000000000000000000000000000090
:101060000000000000000000000000000000000080
:101070000000000000000000000000000000000070
:101080000000000000000000000000000000000060
:101090000000000000000000000000000000000050
:1010A0000000000000000000000000000000000040
:1010B000EB0C000002000000D50C0000080000004E
:1010C000F40C000004000000E60C00000A00000020
:1010D000FA0C00000C000000EF0C000006000000FD
:0C10E000D90C00000E000000E00C000025
:040000050000026D88
:00000001FF
